:1000000019C079C132C031C030C02FC02EC02DC040
:100010002CC02BC02AC032C128C027C026C025C092
:1000200024C023C07DC121C020C01FC01EC01DC070
:100030001CC01BC011241FBECFEFD4E0DEBFCDBF5C
:1000400011E0A0E0B1E0EEEEF9E002C005900D9203
:10005000A632B107D9F711E0A6E2B1E001C01D92C6
:10006000AC3BB107E1F704D4C0C4CACFDF93CF9350
:100070000F92CDB7DEB719820DC08981882F90E02D
:10008000880F991F875D9E4FFC0111821082898124
:100090008F5F898389818F3080F30F90CF91DF91BB
:1000A0000895DF93CF9300D000D000D0CDB7DEB756
:1000B0009C838B837E836D831A82198205C089811C
:1000C0009A8101969A83898389819A81880F991FE1
:1000D000875D9E4FFC0180819181009729F0898185
:1000E0009A818F30910558F389819A818F309105DB
:1000F00008F589819A81880F991F875D9E4F2B8112
:100100003C81FC013183208389819A81880F991F6A
:1001100084589E4F2D813E81FC013183208389814B
:100120009A81880F991F86569E4FFC01118210827A
:10013000898101C08FEF26960FB6F894DEBF0FBEFF
:10014000CDBFCF91DF910895DF93CF930F92CDB7BD
:10015000DEB789838981882369F089818F3050F4E3
:100160008981882F90E0880F991F875D9E4FFC0141
:10017000118210820F90CF91DF910895DF93CF937A
:1001800000D0CDB7DEB79A83898389819A81909315
:100190004901809348010F900F90CF91DF9108950E
:1001A000DF93CF93CDB7DEB710924901109248018B
:1001B000CF91DF910895DF93CF930F92CDB7DEB744
:1001C000789483D303C0000001C0000019823CC0B2
:1001D0008981882F90E0880F991F875D9E4FFC01D1
:1001E00080819181009769F18981882F90E0880F43
:1001F000991F86569E4FFC01208131818981882F6D
:1002000090E0880F991F84589E4FFC018081918156
:1002100028173907B0F08981882F90E0880F991F3F
:1002200086569E4FFC01118210828981882F90E0B2
:10023000880F991F875D9E4FFC0180819181FC0191
:10024000099589818F5F898389818F3008F2809138
:10025000480190914901009709F4B5CF8091270199
:10026000813009F0B2CF10922701209148013091DE
:1002700049018AE491E0F9010995A8CF1F920F92F4
:100280000FB60F9211242F933F938F939F93EF9369
:10029000FF93DF93CF93CDB7DEB7109247011AC01B
:1002A00080914701882F90E09C01220F331F265632
:1002B0003E4FF901208131812F5F3F4F880F991FF9
:1002C00086569E4FFC0131832083809147018F5FCA
:1002D00080934701809147018F3010F3CF91DF91D8
:1002E000FF91EF919F918F913F912F910F900FBEB2
:1002F0000F901F9018951F920F920FB60F92112416
:100300008F93DF93CF93CDB7DEB781E08093280141
:10031000CF91DF918F910F900FBE0F901F90189586
:100320001F920F920FB60F9211242F933F938F932A
:100330009F93EF93FF93DF93CF93CDB7DEB7809179
:100340002601882F90E026EC30E0F9012081865BC1
:100350009E4FFC01208380912601882F90E0865BD0
:100360009E4FFC0180818D3051F080912601882FB5
:1003700090E0865B9E4FFC018081882371F4809120
:100380002601882F90E0865B9E4FFC011082109220
:10039000260181E08093270105C0809126018F5FAF
:1003A00080932601CF91DF91FF91EF919F918F91E3
:1003B0003F912F910F900FBE0F901F901895DF93D4
:1003C000CF93CDB7DEB78AE290E02AE230E0F901C0
:1003D0002081206CFC0120838BE290E02BE230E056
:1003E000F90120812068FC01208389E690E029E65C
:1003F00030E0F90120812260FC0120838DE390E050
:100400002DE330E0F90120812160FC012083CF91B0
:10041000DF910895DF93CF9300D0CDB7DEB79A83F5
:10042000898389819A81009711F400C006C089816F
:100430009A810197F1F79A8389830F900F90CF915A
:10044000DF910895DF93CF93CDB7DEB785E290E0DB
:1004500025E230E0F90120812062FC01208300C008
:1004600085E290E025E230E0F90120812F7DFC015A
:100470002083CF91DF910895DF93CF9300D00F9227
:10048000CDB7DEB78A836B838B81882351F085E2F9
:1004900090E025E230E0F90120812064FC01208316
:1004A00009C085E290E025E230E0F90120812F7B50
:1004B000FC01208385E290E025E230E0F901208113
:1004C0002F77FC01208384E290E024E230E0F90100
:1004D00020812F60FC01208385E290E0FC01808177
:1004E000807F898385E290E02A8122952F70322FC8
:1004F0002981232BFC012083A5DF85E290E02A815E
:10050000322F3F702981232BFC0120839BDF85E262
:1005100090E029812F60FC0120830F900F900F90B5
:10052000CF91DF910895DF93CF9300D0CDB7DEB7A1
:100530008A838A81882351F085E290E025E230E0C9
:10054000F90120812064FC01208309C085E290E04C
:1005500025E230E0F90120812F7BFC01208385E238
:1005600090E025E230E0F90120812068FC01208341
:1005700084E290E024E230E0F9012081207FFC0158
:10058000208385E290E025E230E0F90120812062BD
:10059000FC01208300C083E290E0FC018081829511
:1005A000807F898385E290E025E230E0F9012081B7
:1005B0002F7DFC01208300C085E290E025E230E041
:1005C000F90120812062FC01208300C083E290E0D9
:1005D000FC018081982F9F708981892B898385E216
:1005E00090E025E230E0F90120812F7DFC0120839D
:1005F00089810F900F90CF91DF9108951F93DF9322
:10060000CF93CDB7DEB780E08EDF182F812F882300
:10061000D4F380E090E0FEDE80E085DFCF91DF91D3
:100620001F9108951F93DF93CF930F92CDB7DEB73D
:1006300089838981803410F410E401C010E0812F97
:10064000805805D00F90CF91DF911F910895DF93CF
:10065000CF930F92CDB7DEB78983D0DF898160E079
:100660000BDF0F90CF91DF910895DF93CF930F921F
:10067000CDB7DEB78983C2DF898161E0FDDE0F90EF
:10068000CF91DF910895DF93CF9300D0CDB7DEB740
:1006900089836A838A81882321F489818058D7DFFE
:1006A00003C089818054D3DF0F900F90CF91DF91E9
:1006B0000895DF93CF93CDB7DEB7A0DF882F90E00A
:1006C000CF91DF910895DF93CF93CDB7DEB781E06F
:1006D000BEDFCF91DF910895DF93CF93CDB7DEB723
:1006E00082E0B5DFCF91DF910895DF93CF9300D003
:1006F000CDB7DEB78A8382DF89838A818A3019F495
:10070000898190DF03C08A8161E0B6DE0F900F908F
:10071000CF91DF9108951F93DF93CF9300D0CDB792
:10072000DEB79A83898302C0812FDFDF89819A81B6
:10073000FC01108121E0112309F420E089819A81D4
:1007400001969A838983222379F70F900F90CF9196
:10075000DF911F9108951F93DF93CF9300D000D0B6
:100760000F92CDB7DEB79D838C8302C0812FBDDF92
:100770008C819D819A8389838C819D8101969D8343
:100780008C8389819A81FC0114911B838B81182FA2
:10079000112361F70F900F900F900F900F90CF9152
:1007A000DF911F910895DF93CF930F92CDB7DEB7FE
:1007B000898384E290E024E230E0F90120812F6017
:1007C000FC01208384E290E024E230E0F901208102
:1007D0002064FC01208384E290E024E230E0F9010F
:1007E00020812068FC01208384E290E024E230E054
:1007F000F90120812062FC01208380EA9FE00ADE6B
:1008000085E290E025E230E0F90120812260FC01E0
:10081000208385E290E025E230E0F901208121602B
:10082000FC0120830FDE80EE94E0F4DD0BDE80E13E
:1008300090E0F0DD07DE80E190E0ECDD85E290E025
:1008400025E230E0F90120812E7FFC012083FADDD2
:1008500080E190E0DFDD88E2FADE88E0F8DE33DF79
:1008600086E0F5DE8981F3DE0F90CF91DF91089568
:10087000DF93CF93CDB7DEB7A2DDF8DB7BD08CE082
:1008800092DF21DF81E091E046DF1DDF85E191E02D
:1008900042DF8FE191E047D085E594E06FDC8BDCAF
:1008A00080E090E0CF91DF910895DF93CF9300D067
:1008B000CDB7DEB79A83898306DF89819A812BDFE2
:1008C0000F900F90CF91DF910895DF93CF93CDB725
:1008D000DEB781E890E021E830E0F90120812C606A
:1008E000FC01208388E890E021E0FC0120838FE672
:1008F00090E02FE630E0F90120812260FC012083A6
:10090000CF91DF910895DF93CF930F92CDB7DEB7EC
:10091000898359D086EC90E02981FC0120830F90D7
:10092000CF91DF910895DF93CF9300D00F92CDB791
:10093000DEB79B838A8381E0898313C08A819B8190
:10094000FC018081882311F419820BC08A819B816C
:10095000FC0120818A819B8101969B838A83822F5F
:10096000D2DF8981882351F70F900F900F90CF919C
:10097000DF910895DF93CF93CDB7DEB780EC90E0A1
:1009800020EC30E0F90120812260FC01208384EC1E
:1009900090E02CE030E0FC013183208381EC90E09A
:1009A00021EC30E0F90120812869FC01208382ECF0
:1009B00090E022EC30E0F90120812660FC012083E8
:1009C000CF91DF910895DF93CF93CDB7DEB70000CD
:1009D00080EC90E0FC018081882F90E08072907024
:0E09E0000097B1F3CF91DF910895F894FFCF07
:1009EE000153616C75742C206361207661206269FD
:1009FE00656E203F006269656E206269656E0073E8
:060A0E00616C757400002C
:00000001FF
