:020000020000FC
:040000001FC062C0FB
:02001C0070C0B2
:02002A00FFC015
:1000400004E00EBF0FEF0DBF0FEF04B92F980EE1C4
:1000500007B90AB108600AB902E00093690001E03B
:100060000DBB00E400937C000CE800937A0000E0F4
:1000700000937B0002E004BD05E005BD0AE007BD7A
:1000800002E000936E0003E20093B00000E00093F2
:10009000B10000E00093700001E00093B40002E2C0
:1000A0000093C00000E00093C10006E00093C2008E
:1000B0000CE00093C40000E00093C50077271127EF
:1000C000882799277894FDC0703071F400C00091A2
:1000D0007A00006400937A0001E00093B10008E127
:1000E0000093C10071E018950CE800937A0000E0DD
:1000F0000093B10000E00093C10070E018957030EB
:1001000029F000917A00006400937A00703009F4BD
:1001100004C083958A3029F006C08395813309F0A5
:1001200002C088271F9A05B10F6705B9703029F5FD
:1001300000C0103031F0113059F0123081F013301E
:10014000A9F00DEF08B905B1027905B91395189515
:100150000BEF08B905B1087F05B91395189507EF9E
:1001600008B905B1007C05B9139518950FEE08B9CB
:1001700005B10C7805B910E01895103031F0113048
:1001800049F0123061F0133079F00DEF08B9032F08
:1001900013950FC00BEF08B9042F13950AC007EF92
:1001A00008B9052F139505C00FEE08B9062F10E00A
:1001B00000C0003091F00130A1F00230B1F0033006
:1001C000C1F00430D1F00530E1F00630F1F0073035
:1001D00001F1083011F1093021F105B1007C05B9B8
:1001E000189505B1097F05B9189505B1047A05B9C7
:1001F000189505B1007B05B9189505B1097905B9C0
:10020000189505B1027905B9189505B1027805B9B7
:10021000189505B1087F05B9189505B1007805B99D
:10022000189505B1007905B91895009078001090DF
:100230007900012D20E0000F23952630E1F7202DD5
:1002400026952695022B0093B40030E040E050E064
:1002500060E0002D045610F04395FCCF24E6020F19
:1002600000C00A5010F05395FCCF2AE0020F00C0E6
:10027000602F012D202F2695213009F003C04B5F00
:100280005F5F6E5F21E02023213009F004C04E5FE4
:100290005B5F6A5F00C06A3028F45A3050F44A301D
:1002A00068F418956A5053955A3018F44A3030F46F
:1002B00018955A5043954A3008F418954A5033958A
:1002C00018957030F1F300C00091C000007800383C
:1002D00081F40091C600033761F400C00CE800937C
:1002E0007A0000E00093B10000E00093C10070E0EC
:1002F000E8CF0091C0000072003219F79395913059
:1003000071F0923079F0933081F0943091F0953023
:10031000A9F09630C1F09730D9F09830F1F01092F2
:10032000C600CFCF0092C600CCCF0BE30093C6002F
:10033000C8CF032F005D0093C600C3CF042F005D1C
:100340000093C600BECF052F005D0093C600B9CF55
:10035000062F005D0093C600B4CF0DE00093C600E9
:0603600090E0AFCFAECF2C
:00000001FF
