:020000020000FC
:020000001FC01F
:0200040052C0E8
:02001C0053C0CF
:02002A0053C0C1
:1000400014E01EBF1FEF1DBF1CE014B912E11AB966
:1000500010E017B912E014BD14E015BD12E01093C2
:100060006E0011E017BD15E610937C001CE810939C
:100070007A0010E010937B0012E21093C00018E0A9
:100080001093C10016E01093C20019E11093C40050
:1000900010E01093C50018E01093690012E01DBB3A
:1000A000002744277727789425C0003031F000C01E
:1000B00015B1177F15B900E0189515B1186015B97D
:1000C00001E018954C9A10917A00106410937A0010
:1000D00018952091780030917900303808F405C0E7
:1000E00015B11B7F15B970E0189515B1146015B9DD
:1000F00071E018957030F1F100C0503009F0FACF7E
:100100001091C00010721032A9F74395413091F060
:100110004230A1F04330B1F04430C1F04530D1F06D
:100120004630E1F04730F1F0483001F1493019F143
:100130004A3029F111E41093C600DCCF1CE610937D
:10014000C600D8CF11E61093C600D4CF12E71093A3
:10015000C600D0CF1DE61093C600CCCF15E6109395
:10016000C600C8CF10E21093C600C4CF1FE410939E
:10017000C600C0CF0BC01EE41093C600BBCF1DE06D
:100180001093C60040E051E060E0B4CF603009F069
:10019000B1CF1091C00010721032B9F443954130C4
:1001A000A9F04230B9F04330C9F04430D9F04530BD
:1001B000E9F04630F9F0473009F1483019F149309B
:1001C00029F14A3039F14B3049F194CF11E41093C1
:1001D000C60090CF1CE61093C6008CCF11E610939A
:1001E000C60088CF12E71093C60084CF1DE6109397
:1001F000C60080CF15E61093C6007CCF10E21093A6
:10020000C60078CF1FE41093C60074CF16E4109395
:10021000C60070CF16E41093C6006CCF1DE010939B
:0C022000C60040E061E050E065CF64CF14
:00000001FF
