:020000020000FC
:020000001FC01F
:0200040039C001
:02001C0038C0EA
:1000400014E01EBF1FEF1DBF1FEF14B915B910E05C
:100050001AB91FE315B912E014BD10E015BD12E086
:1000600010936E001FEF17BD18E01093690012E0A7
:100070001DBB7894222747C0003029F000C010E053
:1000800015BD00E0189515E015BD01E0189520306C
:1000900091F02130A1F02230B1F02330C1F02430B2
:1000A000D1F02530E1F02630F1F0273001F1283091
:1000B00011F1293021F121E01FE315B9189522E053
:1000C00016E015B9189523E01BE515B9189524E03D
:1000D0001FE415B9189525E016E615B9189526E020
:1000E0001DE615B9189527E01DE715B9189528E004
:1000F00017E015B9189529E01FE715B9189520E004
:080100001FE615B91895FFCFA9
:00000001FF
