:020000020000FC
:020000001FC01F
:02001C0039C0E9
:02002A0038C0DC
:1000400004E00EBF0FEF0DBF0FEF0AB908E00BB9C8
:1000500000E400937C000CE800937A0000E0009339
:100060007B0002E004BD05E005BD01E007BD02E044
:1000700000936E0003E20093B00001E00093B10032
:1000800000E00093700001E00093B400789417C082
:1000900000917A00006400937A001895009078002F
:1000A00010907900012D20E0000F23952630E1F714
:1000B000202D26952695022B0093B4001895FFCF8E
:00000001FF
