:020000020000FC
:020000001FC01F
:0200040037C003
:1000400014E01EBF1FEF1DBF1FEF14B915B910E05C
:100050001AB91FE315B912E014BD15E015BD12E081
:100060001FEF17BD18E01093690012E01DBB7894D4
:10007000222738C016B519501A3008F0FCCF212FAE
:10008000203091F0213099F02230A1F02330A9F0F6
:100090002430B1F02530B9F02630C1F02730C9F056
:1000A0002830D1F02930D9F01FE315B9189516E0A2
:1000B00015B918951BE515B918951FE415B91895CC
:1000C00016E615B918951DE615B918951DE715B969
:1000D000189517E015B918951FE715B918951FE67B
:0600E00015B91895FFCFD1
:00000001FF
