:020000020000FC
:020000001FC01F
:02001C0043C0DF
:02002A0043C0D1
:1000400004E00EBF0FEF0DBF0FEF04B90FEF0AB9B9
:100050000FE305B900E600937C000CE800937A00FA
:1000600000E000937B0002E20093C00008E00093F0
:10007000C10006E00093C2000CE00093C40000E061
:100080000093C50002E004BD05E005BD0FEF07BD0C
:1000900002E000936E007894112740E04F3F09F48E
:1000A00040E061C000917A00006400937A004395BB
:1000B000189520917800309179003BB900C0132F3A
:1000C0005DE05093C6001C3190F01833B0F0143549
:1000D000D0F01037F0F01C3810F1183A30F1143C21
:1000E00050F1103E70F11F3F90F11F3FB1F10FE34F
:1000F00005B950E35093C600189506E005B951E3E1
:100100005093C60018950BE505B952E35093C6000D
:1001100018950FE405B953E35093C600189506E609
:1001200005B954E35093C60018950DE605B955E39B
:100130005093C60018950DE705B956E35093C600D5
:10014000189507E005B957E35093C60018950FE7D7
:1001500005B958E35093C60018950FE605B959E361
:080160005093C6001895FFCF73
:00000001FF
