:020000020000FC
:040000001FC050C00D
:02001C0054C0CE
:02002A0053C0C1
:1000400004E00EBF0FEF0DBF0FEF04B90EE107B9CB
:100050000BEF0AB908E00BB902E00093690001E078
:100060000DBB00E400937C000CE800937A0000E0F4
:1000700000937B0002E004BD00E005BD01E007BD88
:1000800002E000936E0003E20093B00000E00093F2
:10009000B10000E00093700001E00093B40070E054
:1000A000789472C0703041F400C005E005BD01E0F5
:1000B0000093B10071E0189500E005BD00E00093E9
:1000C000B10070E0189500917A00006400937A0006
:1000D00018950090780010907900012D20E0000F15
:1000E00023952630E1F7202D26952695022B0093A7
:1000F000B400002D045612F04395FCCF24E6020F05
:100100000A5012F05395FACF2AE0020F602F012D0A
:10011000202F2695213009F00CC020E0439523952F
:100120002530E1F7539520E0639523952230E1F7E0
:1001300000C021E02023213009F010C020E04395C9
:1001400023952230E1F720E0539523952530E1F700
:1001500020E0639523952630E1F700C06A3028F44B
:100160005A3050F44A3068F418956A5053955A3012
:1001700018F44A3030F418955A5043954A3008F430
:1001800018954A5033951895703049F50DEF08B918
:1001900002E105B90FEF003019F000C00A95FBCF5E
:1001A0000BEF08B908E705B90FEF003019F000C0F0
:1001B0000A95FBCF07EF08B900E405B90FEF00304F
:1001C00019F000C00A95FBCF0FEE08B90CE005B995
:1001D0000FEF003019F000C00A95FBCFD5CF31E00A
:1001E00040E052E064E020E0203031F0213049F07E
:1001F000223061F0233079F00DEF08B9032F2395F9
:1002000010C00BEF08B9042F23950BC007EF08B9F6
:10021000052F239506C00FEE08B9062F239501C0C0
:10022000B3CF003091F00130A9F00230C1F00330BB
:10023000D9F00430F1F0053009F1063021F1073032
:1002400039F1083059F1093071F100E405B9243071
:1002500039F3CACF09E705B9243011F3C5CF04E259
:1002600005B92430E9F2C0CF00E305B92430C1F26A
:10027000BBCF09E105B9243099F2B6CF02E105B947
:10028000243071F2B1CF02E005B9243049F2ACCF8D
:1002900008E705B9243021F2A7CFC2CF0FEB05B98B
:1002A0002430D9F3A1CF00E105B92430B1F39CCFBC
:0202B000F4CF89
:00000001FF
