:1000000023C060C13CC03BC03AC039C038C037C013
:1000100036C035C034C019C132C031C030C02FC065
:100020002EC02DC02CC02BC02AC029C028C027C07C
:1000300026C025C078C17DC182C187C18CC191C154
:1000400096C19BC1A0C1A5C111241FBECFEFD4E0B2
:10005000DEBFCDBF11E0A0E0B1E0E8EDF7E002C007
:1000600005900D92A430B107D9F711E0A4E0B1E0FA
:1000700001C01D92A435B107E1F796D1ABC3C0CF43
:10008000DF93CF930F92CDB7DEB7198217C0898166
:10009000882F90E0880F991F895F9E4FFC01118285
:1000A00010828981882F90E0880F991F845E9E4F6F
:1000B000FC011182108289818F5F898389818A3056
:1000C00030F30F90CF91DF910895DF93CF9300D05D
:1000D00000D000D0CDB7DEB79C838B837E836D8349
:1000E0001A82198205C089819A8101969A8389832F
:1000F00089819A81880F991F895F9E4FFC018081B9
:100100009181009729F089819A818A30910558F36D
:1001100089819A818A30910508F589819A81880FB1
:10012000991F895F9E4F2B813C81FC013183208385
:1001300089819A81880F991F845E9E4F2D813E810F
:10014000FC013183208389819A81880F991F805D0A
:100150009E4FFC0111821082898101C08FEF26968B
:100160000FB6F894DEBF0FBECDBFCF91DF910895DB
:10017000DF93CF930F92CDB7DEB789838981882330
:10018000B9F089818A30A0F48981882F90E0880FA6
:10019000991F895F9E4FFC01118210828981882FEF
:1001A00090E0880F991F845E9E4FFC01118210829F
:1001B0000F90CF91DF910895DF93CF930F92CDB73A
:1001C000DEB77894C2D219823CC08981882F90E032
:1001D000880F991F895F9E4FFC0180819181009754
:1001E00069F18981882F90E0880F991F805D9E4F6B
:1001F000FC01208131818981882F90E0880F991F2F
:10020000845E9E4FFC018081918128173907B0F0F0
:100210008981882F90E0880F991F805D9E4FFC0197
:10022000118210828981882F90E0880F991F895F41
:100230009E4FFC0180819181FC01099589818F5F2E
:10024000898389818A3008F2BECF1F920F920FB640
:100250000F9211242F933F938F939F93EF93FF93CC
:10026000DF93CF93CDB7DEB710921B011AC08091F8
:100270001B01882F90E09C01220F331F205D3E4F11
:10028000F901208131812F5F3F4F880F991F805DD9
:100290009E4FFC013183208380911B018F5F8093EF
:1002A0001B0180911B018A3010F3CF91DF91FF91E8
:1002B000EF919F918F913F912F910F900FBE0F90D3
:1002C0001F9018951F920F920FB60F9211248F93C3
:1002D000DF93CF93CDB7DEB781E080930401CF9158
:1002E000DF918F910F900FBE0F901F901895DF93A5
:1002F000CF9300D0CDB7DEB79A83898389819A8165
:10030000AA2797FDA095BA2F40E050E029E030E001
:10031000841B950B2817390708F441C0865E9F4F50
:100320008F939F93089585E290E02FE3FC01208353
:1003300036C085E290E026E0FC01208330C085E2F3
:1003400090E02BE5FC0120832AC085E290E02FE4B9
:10035000FC01208324C085E290E026E6FC01208396
:100360001EC085E290E02DE6FC01208318C085E2E6
:1003700090E02DE7FC01208312C085E290E027E0A9
:10038000FC0120830CC085E290E02FE7FC01208374
:1003900006C085E290E02FE6FC01208300000F906C
:1003A0000F90CF91DF910895DF93CF93CDB7DEB754
:1003B000A4D166DE85EF91E064E670E086DE80938E
:1003C00046018FE392E064E670E07FDE80934C01AB
:1003D0008AE792E06AE070E078DE80935301ECDE19
:1003E00080E090E0CF91DF910895DF93CF93CDB778
:1003F000DEB7809104018130C9F480910001813021
:10040000A9F41092000180914C01B2DE8FE392E0DA
:1004100064E670E05ADE80934C0188E292E068E87E
:1004200073E153DE80934A0110920401CF91DF9172
:100430000895DF93CF93CDB7DEB789E290E020E453
:10044000FC01208380914B0193DECF91DF910895D1
:10045000DF93CF93CDB7DEB780914C0189DE8FE378
:1004600092E068EE73E031DE80934C0180914A01A6
:100470007FDE81E080930001CF91DF910895DF93CB
:10048000CF93CDB7DEB789E290E029E230E0F90101
:100490002081622F40914F015091500121E030E0C6
:1004A000042E02C0220F331F0A94E2F7262BFC0110
:1004B00020838091010190910201019790930201A4
:1004C00080930101809101019091020199237CF4B4
:1004D00080914C014DDE809153014ADE88E290E02C
:1004E000FC0110828BE290E02FEFFC012083CF9182
:1004F000DF910895DF93CF93CDB7DEB780914701A9
:100500008F5F8093470180914701843010F01092F3
:100510004701809101019091020128EE33E0B90179
:1005200032D19B01C90190935201809351014091B6
:1005300051015091520188E19CEF489F9001499FE1
:10054000300D589F300D11248091010190910201CE
:10055000820F931F24E630E0B90115D19B01C90138
:1005600090934E0180934D01409151015091520161
:1005700088E19CEF489F9001499F300D589F300DB6
:10058000112460914D0170914E014CE95FEF649F21
:10059000C001659F900D749F900D1124280F391F85
:1005A0008091010190910201820F931F2AE030E0B7
:1005B000B901E9D09B01C901909349018093480199
:1005C000409151015091520188E19CEF489F900168
:1005D000499F300D589F300D112460914D0170914D
:1005E0004E014CE95FEF649FC001659F900D749FC1
:1005F000900D1124280F391F809101019091020163
:10060000280F391F8091480190914901880F991F47
:10061000AC01440F551F440F551F840F951F909533
:1006200081959F4F820F931F9093500180934F01AC
:1006300080914701882F90E081309105A9F18230A7
:10064000910524F4009709F446C054C08230910506
:1006500099F08330910509F04DC088E290E0FC01EB
:10066000108280914F019091500141DE88E290E02C
:1006700028E0FC0120833EC088E290E0FC0110826B
:10068000809148019091490132DE88E290E024E0B7
:10069000FC01208385E290E025E230E0F901208131
:1006A0002068FC01208326C088E290E0FC011082D3
:1006B00080914D0190914E011ADE88E290E022E097
:1006C000FC0120838091480190914901909306019B
:1006D000809305010FC088E290E0FC0110828091B8
:1006E00051019091520103DE88E290E021E0FC018B
:1006F00020830000CF91DF910895DF93CF93CDB792
:10070000DEB78AE290E02FEFFC01208384E290E0E4
:100710002FEFFC01208387E290E02FEFFC01208384
:1007200089E690E029E630E0F90120812260FC01B1
:1007300020838DE390E02DE330E0F90120812160FA
:10074000FC012083CF91DF910895DF93CF93CDB744
:10075000DEB781E890E021E830E0F90120812C60EB
:10076000FC01208388E890E021E0FC0120838FE6F3
:1007700090E02FE630E0F90120812260FC01208327
:10078000CF91DF91089597FB092E07260AD077FDB8
:1007900004D00CD006D000201AF4709561957F4FDC
:1007A0000895F6F7909581959F4F0895AA1BBB1B5E
:1007B00051E107C0AA1FBB1FA617B70710F0A61B61
:1007C000B70B881F991F5A95A9F780959095BC0182
:0807D000CD010895F894FFCF5C
:0407D80001F4010027
:00000001FF
