:020000020000FC
:020000001FC01F
:02001C0035C0ED
:1000400004E00EBF0FEF0DBF0FEF04B901E005B9DB
:1000500002E20093C00008E00093C10006E00093B4
:10006000C2000CE00093C40000E00093C50002E071
:1000700004BD05E005BD0FEF07BD02E000936E0073
:10008000789413E420E046C001E003B923952130C1
:10009000A1F02230B1F02330C1F02430D1F025306E
:1000A000E1F02630F1F0273001F1283011F129304C
:1000B00021F12A3031F12B3041F113E41093C600C5
:1000C000189518E61093C600189515E61093C6000B
:1000D000189516E71093C600189511E61093C60000
:1000E00018951CE61093C600189519E61093C600E3
:1000F000189515E61093C600189512E71093C600E0
:1001000018951DE01093C60018951DE01093C600C9
:0601100020E01895FFCF6E
:00000001FF
