:020000020000FC
:020000001FC01F
:0200040030C00A
:1000400014E01EBF1FEF1DBF1FEF14B915B910E05C
:100050001AB91FE315B918E01093690012E01DBB2F
:100060007894222734C02395203091F0213099F0E4
:100070002230A1F02330A9F02430B1F02530B9F0BE
:100080002630C1F02730C9F02830D1F02930D9F01E
:100090001FE315B9189516E015B918951BE515B9A4
:1000A00018951FE415B9189516E615B918951DE6AB
:1000B00015B918951DE715B9189517E015B91895D4
:1000C0001FE715B918951FE615B92FEF1895FFCF43
:00000001FF
