:020000020000FC
:020000001FC01F
:02001C0034C0EE
:02002A0034C0E0
:1000400004E00EBF0FEF0DBF0FEF04B90FEF0AB9B9
:100050000FE305B900E600937C000CE800937A00FA
:1000600000E000937B0002E004BD05E005BD0FEF5A
:1000700007BD02E000936E007894112740E04F3FE7
:1000800009F440E040C000917A00006400937A00D7
:100090004395189520917800309179003BB900C0C4
:1000A000132F1C3190F0183398F01435A0F010374E
:1000B000A8F01C38B0F0183AB8F0143CC0F0103E6C
:1000C000C8F01F3FD0F01F3FD9F00FE305B91895D6
:1000D00006E005B918950BE505B918950FE405B9C3
:1000E000189506E605B918950DE605B918950DE7BA
:1000F00005B9189507E005B918950FE705B91895E2
:080100000FE605B91895FFCFC9
:00000001FF
